:100000000C9458000C9480000C9480000C94800098
:100010000C9480000C9480000C9480000C94800060
:100020000C9480000C9480000C9480000C94800050
:100030000C9480000C9480000C9480000C94800040
:100040000C948D030C9480000C94FD030C94D70346
:100050000C9480000C9480000C9480000C94800020
:100060000C942F040C948000000000002500280050
:100070002B00040404040404040402020202020229
:10008000030303030303010204081020408001025C
:1000900004081020010204081020000000080002DB
:1000A00001000003040700000000000000005D05DF
:1000B00011241FBECFEFD8E0DEBFCDBF11E0A0E01E
:1000C000B1E0E6E6FDE002C005900D92A436B1076E
:1000D000D9F722E0A4E6B1E001C01D92AC3AB20724
:1000E000E1F710E0C8E5D0E004C02197FE010E94CE
:1000F000A606C735D107C9F70E9496050C94B1062C
:100100000C94000090E0FC01E656FF4F2491FC01A6
:10011000EA57FF4F3491FC01EE58FF4FE491EE2374
:10012000B1F1222339F1233091F038F42130A9F0D4
:10013000223001F584B58F7D12C0273091F0283030
:10014000A1F02430B9F4809180008F7D03C08091AC
:1001500080008F77809380000DC084B58F7784BD39
:1001600009C08091B0008F7703C08091B0008F7D6F
:100170008093B000F0E0EE0FFF1FE859FF4FA5910C
:10018000B4918FB7F894EC91E32BEC938FBF089563
:100190003FB7F8948091FF0190910002A091010275
:1001A000B091020226B5A89B05C02F3F19F0019619
:1001B000A11DB11D3FBFBA2FA92F982F8827820FED
:1001C000911DA11DB11DBC01CD0142E0660F771F3D
:1001D000881F991F4A95D1F708950895CF93DF930B
:1001E000AC01E091F601F091F7013097F1F09091B8
:1001F000F5018091F4019817C0F090E0292F30E0CC
:100200002617370754F4D901AC59BE4FEA01C20F83
:10021000D31F28812C939F5FF1CF1092F50160933B
:10022000F401CB01DF91CF910994DF91CF91089533
:10023000CF92DF92EF92FF920F931F93CF93DF93B2
:100240006C017A018B01C0E0D0E0CE15DF0581F0B2
:10025000D8016D918D01D601ED91FC910190F08155
:10026000E02DC6010995892B11F02196EECF7E0174
:10027000C701DF91CF911F910F91FF90EF90DF9019
:10028000CF900895FC01538D448D252F30E0842FAD
:1002900090E0821B930B541710F0CF9608950197AE
:1002A0000895FC01918D828D981761F0828DDF0198
:1002B000A80FB11D5D968C91928D9F5F9F73928F59
:1002C00090E008958FEF9FEF0895FC01918D828D4E
:1002D000981731F0828DE80FF11D858D90E008951B
:1002E0008FEF9FEF0895FC01918D228D892F90E073
:1002F000805C9F4F821B91098F739927089583E03B
:1003000092E00E94730121E0892B09F420E0822F02
:100310000895FC01848DDF01A80FB11DA35ABF4FC2
:100320002C91848D90E001968F739927848FA689F4
:10033000B7892C93A089B1898C91837080648C9348
:10034000938D848D981306C00288F389E02D8081F7
:100350008F7D80830895EF92FF920F931F93CF9329
:10036000DF93EC0181E0888F9B8D8C8D981305C005
:10037000E889F989808185FD26C0F62E0B8D10E075
:100380000F5F1F4F0F731127E02E8C8DE8120CC0EA
:100390000FB607FCFACFE889F989808185FFF5CF90
:1003A000CE010E948901F1CF8B8DFE01E80FF11D76
:1003B000E35AFF4FF0829FB7F8940B8FEA89FB89CD
:1003C000808180620AC09FB7F894EE89FF896083BC
:1003D000E889F98980818370806480839FBF81E090
:1003E00090E0DF91CF911F910F91FF90EF900895D2
:1003F000CF93DF93EC01888D8823C9F0EA89FB89CC
:10040000808185FD05C0A889B9898C9186FD0FC0C2
:100410000FB607FCF5CF808185FFF2CFA889B98997
:100420008C9185FFEDCFCE010E948901E7CFDF914E
:10043000CF91089580E090E0892B29F00E947F0100
:1004400081110C940000089585ED8093BC0080918B
:10045000BC0084FDFCCF1092F10108954091A401ED
:10046000262F30E0240F311D21323105DCF420919C
:10047000F1012430C9F4FC0180E090E0861758F4C3
:100480003091A4012191DC01AC57BE4FA30FB11DE7
:100490002C930196F3CF8091A401680F6093A4017F
:1004A00080E0089581E0089582E008950895E09144
:1004B000F5018091F401E81730F4F0E0EC59FE4FBB
:1004C000808190E008958FEF9FEF08959091F5015E
:1004D0008091F401981750F4E92FF0E0EC59FE4FA9
:1004E000208130E09F5F9093F50102C02FEF3FEF36
:1004F000C90108958091F40190E02091F501821BDB
:1005000091090895CF93DF93CB01EA01642F0E94F4
:100510002E02CE01DF91CF910895CF93DF931F92EA
:10052000CDB7DEB7698361E0CE0101960E942E024D
:1005300081E090E00F90DF91CF910895089580E0E1
:1005400090E00895009769F0FC0101900020E9F720
:100550003197AF01481B590BBC0183E092E00C942A
:10056000180180E090E008958F929F92AF92BF9221
:100570000F931F93CF93DF93CDB7DEB7A1970FB63D
:10058000F894DEBF0FBECDBF19A2423008F44AE096
:100590008E010F5D1F4F842E912CA12CB12CA50133
:1005A00094010E948406E62FB901CA010150110985
:1005B000EA3014F4E05D01C0E95CD801EC93232B30
:1005C000242B252B61F7C8010E94A202A1960FB629
:1005D000F894DEBF0FBECDBFDF91CF911F910F9179
:1005E000BF90AF909F908F900895CF93DF93682F27
:1005F00070E080E090E04AE00E94B402EC0184E206
:1006000091E00E94A2028C0F9D1FDF91CF9108956F
:100610008F929F92AF92BF92DF92EF92FF920F93D1
:100620001F93CF93DF931092F9011092F80180EAA3
:1006300092E00E946602D82E80EA92E00E94660252
:10064000E82E80EA92E00E946602F82E00E010E0B8
:10065000C0E0D0E080EA92E00E9466029927002E76
:1006600002C0880F991F0A94E2F7C82BD92B085FA4
:100670001F4F0032110571F787E291E00E94A2023C
:100680008091F40190E02091F501821B91094C01C9
:10069000092E000CAA08BB0897FF0EC06DE283E08C
:1006A00092E00E94AB0166277727CB016819790990
:1006B0008A099B094AE003C04AE0C501B4010E94CF
:1006C000B40284E291E00E94A2028D2D0E94F50204
:1006D0008E2D0E94F5028F2D0E94F502BE0180E052
:1006E00090E04AE00E94B40284E291E00E94A202FB
:1006F00088E391E00E94A20284E291E0DF91CF9131
:100700001F910F91FF90EF90DF90BF90AF909F905F
:100710008F900C94A2020E94AC061F920F920FB60B
:100720000F9211242F933F938F939F93AF93BF9377
:100730008091FB019091FC01A091FD01B091FE011F
:100740003091FA0123E0230F2D3720F40196A11DEB
:10075000B11D05C026E8230F0296A11DB11D2093EF
:10076000FA018093FB019093FC01A093FD01B093EB
:10077000FE018091FF0190910002A0910102B091D1
:1007800002020196A11DB11D8093FF01909300020A
:10079000A0930102B0930202BF91AF919F918F91FC
:1007A0003F912F910F900FBE0F901F9018951F92A1
:1007B0000F920FB60F9211242F933F934F935F9395
:1007C0006F937F938F939F93AF93BF93EF93FF9319
:1007D00083E092E00E948901FF91EF91BF91AF9178
:1007E0009F918F917F916F915F914F913F912F9149
:1007F0000F900FBE0F901F9018951F920F920FB67B
:100800000F9211242F938F939F93EF93FF93E09177
:100810001302F09114028081E0911902F0911A0202
:1008200082FD12C0908180911C028F5F8F73209196
:100830001D02821751F0E0911C02F0E0ED5FFD4FC8
:10084000958F80931C0201C08081FF91EF919F9151
:100850008F912F910F900FBE0F901F9018951F92A0
:100860000F920FB60F9211242F933F934F935F93E4
:100870006F937F938F939F93AF93BF93EF93FF9368
:100880008091B900887F803609F49CC068F5883271
:1008900009F45BC090F4803109F454C038F4882323
:1008A00009F4F6C0883009F44DC0F6C0883109F467
:1008B0004CC0803209F45DC0EFC0803409F468C0D8
:1008C00048F4803309F455C0883309F0E5C08093BB
:1008D000C701D8C0803509F44FC0883509F45DC020
:1008E000883409F0D9C0D6C0883909F4C7C0A8F443
:1008F000883709F467C038F4883609F463C0803754
:1009000009F460C0C9C0883809F4B8C0803909F456
:100910005FC0803809F0C0C05BC0803B09F486C06E
:1009200038F4803A09F466C0883A09F47FC0B4C04C
:10093000803C09F4A7C0883C09F4A4C0883B09F4B2
:100940008AC0AAC08091EA0110C09091E90180910B
:10095000E801981770F5E091E90181E08E0F80932E
:10096000E901F0E0E853FE4F80818093BB0085EC05
:1009700086C08093C7018EC0E091E90181E08E0FAF
:100980008093E9018091BB00F0E0E853FE4F808343
:100990009091E9018091E8016EC0E091E90181E068
:1009A0008E0F8093E9018091BB00F0E0E853FE4F89
:1009B00080838091F00181116DC081E08093EF010F
:1009C00084EA61C083E08093F1011092C601CFCF29
:1009D0008091C601803208F051C0E091C60181E0EB
:1009E0008E0F8093C6018091BB00F0E0EA55FE4F68
:1009F0008083BDCF85EC8093BC001092F101809183
:100A0000C601803230F4E091C601F0E0EA55FE4FB5
:100A100010826091C60170E0E091EB01F091EC0171
:100A200086EA91E009951092C60136C084E0809371
:100A3000F1011092A5011092A401E091ED01F09155
:100A4000EE0109958091A401811105C081E0809398
:100A5000A40110928401E091A50181E08E0F8093A2
:100A6000A501F0E0EC57FE4F80818093BB00909190
:100A7000A5018091A401981708F479CF85E88093A7
:100A8000BC000AC085EC8093BC001092F10104C048
:100A90001092C7010E942402FF91EF91BF91AF9184
:100AA0009F918F917F916F915F914F913F912F9186
:100AB0000F900FBE0F901F901895E3E0F2E01382A5
:100AC000128288EE93E0A0E0B0E084839583A68351
:100AD000B78324E031E03183208325EC30E0358793
:100AE000248724EC30E03787268720EC30E0318BF8
:100AF000208B21EC30E0338B228B22EC30E0358BE5
:100B0000248B26EC30E0378B268B118E128E138EC1
:100B1000148EE0EAF2E01382128284839583A68326
:100B2000B78386E191E0918380830895789484B5BA
:100B3000826084BD84B5816084BD85B5826085BDD9
:100B400085B5816085BD80916E00816080936E0067
:100B50001092810080918100826080938100809159
:100B6000810081608093810080918000816080930A
:100B700080008091B10084608093B1008091B000CA
:100B800081608093B00080917A00846080937A00C5
:100B900080917A00826080937A0080917A008160EF
:100BA00080937A0080917A00806880937A00109216
:100BB000C100E0911302F091140282E08083E09181
:100BC0000F02F09110021082E0911102F0911202D6
:100BD00083E3808310921B02E0911702F0911802C8
:100BE00086E08083E0911502F09116028081806199
:100BF0008083E0911502F0911602808188608083E5
:100C0000E0911502F0911602808180688083E09166
:100C10001502F091160280818F7D80831092F5017C
:100C20001092F4011092F3011092F2011092F1016E
:100C300081E08093F0011092EF0182E10E94820036
:100C400083E10E9482008091B9008E7F8093B90079
:100C50008091B9008D7F8093B90088E48093B800BB
:100C600085E48093BC008DEE90E09093EE0180933C
:100C7000ED018EEE90E09093EC018093EB0180E12A
:100C80008093BA0088E093E09093F7018093F60197
:100C90000E94C8006B017C0184E6882E912CA12C57
:100CA000B12C0E94C800DC01CB018C199D09AE0952
:100CB000BF09883E9340A105B10598F321E0821A4F
:100CC0009108A108B10888EEC80E83E0D81EE11C87
:100CD000F11C81149104A104B10419F78091F80169
:100CE0009091F90101969093F9018093F801409752
:100CF00044F08CE491E00E94A20284E291E00E9420
:100D0000A2020E941A02C4CFA1E21A2EAA1BBB1B88
:100D1000FD010DC0AA1FBB1FEE1FFF1FA217B307C7
:100D2000E407F50720F0A21BB30BE40BF50B661FDD
:100D3000771F881F991F1A9469F7609570958095A1
:100D400090959B01AC01BD01CF010895EE0FFF1FEF
:100D50000590F491E02D099481E090E0F8940C94D2
:060D6000B106F894FFCF7C
:100D660000000000AB0118014201F80173015101B6
:100D76006501000000008D0282029F0256027A027F
:100D8600660257020D0A007769726520617661690D
:100D96006C61626C653A20002D202D202D202D20BF
:100DA6002D202D202D202D202D202D00656E7465E3
:100DB60072696E6720656D657267656E6379206D11
:040DC6006F646500F1
:00000001FF
