:100000000C945F000C9487000C9487000C9487007C
:100010000C9487000C9487000C9487000C94870044
:100020000C9487000C9487000C9487000C94870034
:100030000C9487000C9487000C9487000C94870024
:100040000C9444030C9487000C94B4030C948E031A
:100050000C9487000C9487000C9487000C94870004
:100060000C94E6030C94870055072D074F0755079E
:100070002D073007550700000000250028002B0041
:10008000040404040404040402020202020203033E
:100090000303030301020408102040800102040846
:1000A00010200102040810200000000800020100D6
:1000B00000030407000000000000000014051124E4
:1000C0001FBECFEFD8E0DEBFCDBF11E0A0E0B1E0B2
:1000D000EAE8FFE002C005900D92AA37B107D9F710
:1000E00022E0AAE7B1E001C01D92AC3EB207E1F701
:1000F00010E0CFE5D0E004C02197FE010E94B807D0
:10010000CE35D107C9F70E944D050C94C3070C9456
:10011000000090E0FC01E855FF4F2491FC01EC56F3
:10012000FF4F3491FC01E058FF4FE491EE23B1F111
:10013000222339F1233091F038F42130A9F0223014
:1001400001F584B58F7D12C0273091F02830A1F0E1
:100150002430B9F4809180008F7D03C080918000AD
:100160008F77809380000DC084B58F7784BD09C0E0
:100170008091B0008F7703C08091B0008F7D809315
:10018000B000F0E0EE0FFF1FEA58FF4FA591B491C9
:100190008FB7F894EC91E32BEC938FBF08953FB7A2
:1001A000F89480913F0290914002A0914102B09159
:1001B000420226B5A89B05C02F3F19F00196A11D4C
:1001C000B11D3FBFBA2FA92F982F8827820F911DED
:1001D000A11DB11DBC01CD0142E0660F771F881F34
:1001E000991F4A95D1F7089508950895CF92DF9207
:1001F000EF92FF920F931F93CF93DF936C017A01DD
:100200008B01C0E0D0E0CE15DF0581F0D8016D9103
:100210008D01D601ED91FC910190F081E02DC60198
:100220000995892B11F02196EECF7E01C701DF9150
:10023000CF911F910F91FF90EF90DF90CF90089595
:10024000FC01538D448D252F30E0842F90E0821BDC
:10025000930B541710F0CF96089501970895FC0161
:10026000918D828D981761F0828DDF01A80FB11DED
:100270005D968C91928D9F5F9F73928F90E0089511
:100280008FEF9FEF0895FC01918D828D981731F0CB
:10029000828DE80FF11D858D90E008958FEF9FEF1F
:1002A0000895FC01918D228D892F90E0805C9F4FF5
:1002B000821B91098F739927089583E492E00E942D
:1002C000510121E0892B09F420E0822F0895FC01DF
:1002D000848DDF01A80FB11DA35ABF4F2C91848DCF
:1002E00090E001968F739927848FA689B7892C9304
:1002F000A089B1898C91837080648C93938D848D57
:10030000981306C00288F389E02D80818F7D808359
:100310000895EF92FF920F931F93CF93DF93EC0119
:1003200081E0888F9B8D8C8D981305C0E889F989B1
:10033000808185FD26C0F62E0B8D10E00F5F1F4FCC
:100340000F731127E02E8C8DE8120CC00FB607FC3E
:10035000FACFE889F989808185FFF5CFCE010E9427
:100360006701F1CF8B8DFE01E80FF11DE35AFF4FBE
:10037000F0829FB7F8940B8FEA89FB8980818062B5
:100380000AC09FB7F894EE89FF896083E889F989EC
:1003900080818370806480839FBF81E090E0DF91E3
:1003A000CF911F910F91FF90EF900895CF93DF931E
:1003B000EC01888D8823C9F0EA89FB89808185FD5D
:1003C00005C0A889B9898C9186FD0FC00FB607FCBE
:1003D000F5CF808185FFF2CFA889B9898C9185FFFF
:1003E000EDCFCE010E946701E7CFDF91CF91089555
:1003F00080E090E0892B29F00E945D0181110C942E
:100400000000089585ED8093BC008091BC0084FDC0
:10041000FCCF1092090208954091BA01262F30E0D6
:10042000240F311D21323105DCF4209109022430E2
:10043000C9F4FC0180E090E0861758F43091BA01CD
:100440002191DC01A656BE4FA30FB11D2C9301963E
:10045000F3CF8091BA01680F6093BA0180E00895EC
:1004600081E0089582E008950895E091E20180918D
:10047000E101E81730F4F0E0E658FE4F808190E0AB
:1004800008958FEF9FEF08959091E2018091E1012F
:10049000981750F4E92FF0E0E658FE4F208130E045
:1004A0009F5F9093E20102C02FEF3FEFC9010895D3
:1004B0008091E10190E02091E201821B9109089571
:1004C000CF92DF92EF92FF920F931F93CF93DF9320
:1004D0007C01CB018A0120910A02222389F0EB01E1
:1004E0006B01C40ED51ECC15DD0569F06991D701ED
:1004F000ED91FC910190F081E02DC7010995F3CFBA
:10050000642F0E940C02C801DF91CF911F910F91BF
:10051000FF90EF90DF90CF900895CF93DF931F92DD
:10052000CDB7DEB7698320910A022223D1F0209152
:100530002D02203240F021E030E0FC0133832283A1
:1005400080E090E015C080910B02E82FF0E0E45FBE
:10055000FD4F998190838F5F80930B0280932D02D2
:1005600005C061E0CE0101960E940C0281E090E09E
:100570000F90DF91CF910895089580E090E0089565
:10058000009769F0FC0101900020E9F73197AF0175
:10059000481B590BBC0183E492E00C94F60080E008
:1005A00090E008958F929F92AF92BF920F931F9306
:1005B000CF93DF93CDB7DEB7A1970FB6F894DEBF28
:1005C0000FBECDBF19A2423008F44AE08E010F5D84
:1005D0001F4F842E912CA12CB12CA50194010E94B7
:1005E0009607E62FB901CA0101501109EA3014F447
:1005F000E05D01C0E95CD801EC93232B242B252B73
:1006000061F7C8010E94C002A1960FB6F894DEBF40
:100610000FBECDBFDF91CF911F910F91BF90AF90D3
:100620009F908F900895CF92DF92EF92FF92CF9399
:10063000DF936B017C016DE283E492E00E9489010B
:10064000EC0166277727CB016C197D098E099F097C
:100650004AE00E94D2028C0F9D1FDF91CF91FF9044
:10066000EF90DF90CF900895CF93DF930E94C00268
:10067000EC018FE291E00E94C0028C0F9D1FDF9180
:10068000CF9108950E94BE071F920F920FB60F924E
:1006900011242F933F938F939F93AF93BF93809198
:1006A0003B0290913C02A0913D02B0913E023091FC
:1006B0003A0223E0230F2D3720F40196A11DB11D2E
:1006C00005C026E8230F0296A11DB11D20933A0212
:1006D00080933B0290933C02A0933D02B0933E0274
:1006E00080913F0290914002A0914102B09142025C
:1006F0000196A11DB11D80933F0290934002A093EB
:100700004102B0934202BF91AF919F918F913F916F
:100710002F910F900FBE0F901F9018951F920F9260
:100720000FB60F9211242F933F934F935F936F93C4
:100730007F938F939F93AF93BF93EF93FF9383E444
:1007400092E00E946701FF91EF91BF91AF919F915D
:100750008F917F916F915F914F913F912F910F906A
:100760000FBE0F901F9018951F920F920FB60F9209
:1007700011242F938F939F93EF93FF93E091530254
:10078000F09154028081E0915902F0915A0282FD69
:1007900012C0908180915C028F5F8F7320915D0207
:1007A000821751F0E0915C02F0E0ED5BFD4F958F18
:1007B00080935C0201C08081FF91EF919F918F91A6
:1007C0002F910F900FBE0F901F9018951F920F92B0
:1007D0000FB60F9211242F933F934F935F936F9314
:1007E0007F938F939F93AF93BF93EF93FF938091EA
:1007F000B900887F803609F49CC068F5883209F416
:100800005BC090F4803109F454C038F4882309F4B3
:10081000F6C0883009F44DC0F6C0883109F44CC0E8
:10082000803209F45DC0EFC0803409F468C048F438
:10083000803309F455C0883309F0E5C0809307027E
:10084000D8C0803509F44FC0883509F45DC08834BC
:1008500009F0D9C0D6C0883909F4C7C0A8F48837D0
:1008600009F467C038F4883609F463C0803709F4A6
:1008700060C0C9C0883809F4B8C0803909F45FC0C5
:10088000803809F0C0C05BC0803B09F486C038F4F2
:10089000803A09F466C0883A09F47FC0B4C0803C4D
:1008A00009F4A7C0883C09F4A4C0883B09F48AC0B5
:1008B000AAC08091E40110C09091060280910502C7
:1008C000981770F5E091060281E08E0F8093060282
:1008D000F0E0EB51FE4F80818093BB0085EC86C039
:1008E000809307028EC0E091060281E08E0F809314
:1008F00006028091BB00F0E0EB51FE4F80839091A7
:100900000602809105026EC0E091060281E08E0F22
:10091000809306028091BB00F0E0EB51FE4F808394
:100920008091080281116DC081E08093E30184EA27
:1009300061C083E0809309021092DC01CFCF8091E7
:10094000DC01803208F051C0E091DC0181E08E0FC3
:100950008093DC018091BB00F0E0E454FE4F808383
:10096000BDCF85EC8093BC00109209028091DC0120
:10097000803230F4E091DC01F0E0E454FE4F10826C
:100980006091DC0170E0E091DD01F091DE018CEB23
:1009900091E009951092DC0136C084E08093090251
:1009A0001092BB011092BA01E091DF01F091E001D9
:1009B00009958091BA01811105C081E08093BA0147
:1009C00010929A01E091BB0181E08E0F8093BB01F0
:1009D000F0E0E656FE4F80818093BB009091BB0112
:1009E0008091BA01981708F479CF85E88093BC000C
:1009F0000AC085EC8093BC001092090204C01092DA
:100A000007020E940202FF91EF91BF91AF919F9167
:100A10008F917F916F915F914F913F912F910F90A7
:100A20000FBE0F901F901895E3E4F2E0138212823C
:100A300088EE93E0A0E0B0E084839583A683B7833B
:100A40002FE031E03183208325EC30E035872487A7
:100A500024EC30E03787268720EC30E0318B208B88
:100A600021EC30E0338B228B22EC30E0358B248B71
:100A700026EC30E0378B268B118E128E138E148E5F
:100A8000E0EEF2E01382128284839583A683B7831B
:100A900081E291E0918380830895789484B58260A7
:100AA00084BD84B5816084BD85B5826085BD85B512
:100AB000816085BD80916E00816080936E00109290
:100AC000810080918100826080938100809181000B
:100AD000816080938100809180008160809380009C
:100AE0008091B10084608093B1008091B0008160FA
:100AF0008093B00080917A00846080937A00809126
:100B00007A00826080937A0080917A00816080937D
:100B10007A0080917A00806880937A001092C100F8
:100B20001092E2011092E10110920B0210922D023C
:100B30001092090281E0809308021092E30182E1A1
:100B40000E94890083E10E9489008091B9008E7F14
:100B50008093B9008091B9008D7F8093B90088E4BB
:100B60008093B80085E48093BC0084EF90E090937C
:100B7000E0018093DF0185EF90E09093DE018093A8
:100B8000DD01E0915302F091540282E08083E09114
:100B90004F02F09150021082E0915102F091520206
:100BA00083E3808310925B02E0915702F091580238
:100BB00086E08083E0915502F09156028081806149
:100BC0008083E0915502F091560280818860808395
:100BD000E0915502F0915602808180688083E09117
:100BE0005502F091560280818F7D80838BEA80933D
:100BF000020185E08093060189E390E3A0E0B0E084
:100C00008093070190930801A0930901B0930A0112
:100C100011E066246A9405EE75EC772EE0E18E2EE5
:100C2000E7E29E2EA12CB12CD0910201C0910601C9
:100C3000C0900701D0900801E0900901F0900A01EE
:100C400082E391E00E94340310930A0228E020938B
:100C50002C0210920B0210922D0268E080EE92E0BE
:100C60000E948D026D2F80EE92E00E948D026C2F0B
:100C700080EE92E00E948D026C2D80EE92E00E9448
:100C80008D0299278F2D7E2D6D2D80EE92E00E9492
:100C90008D02B7018827992780EE92E00E948D028D
:100CA0006F2D77278827992780EE92E00E948D028A
:100CB00090912D02913208F042C080910902811179
:100CC000FCCF82E080930902109308026092070231
:100CD0001092060290930502ACE0B2E0E5EEF1E07E
:100CE00080E0981721F02D9121938F5FFACF109219
:100CF000E4018091E40180618093E4018091E3014B
:100D0000813069F41092E3018091E4018093BB008B
:100D10008091BC0083FDF8CF7092BC0002C00093AC
:100D2000BC00809109028230E1F3809107028F3F7D
:100D300031F080910702803211F080910702109209
:100D40000B0210922D0210920A028EE491E00E9492
:100D50003403809102018F5F809302010E94CF00D3
:100D60001B012C0138EEC32E33E0D32EE12CF12CE5
:100D70000E94CF00DC01CB0182199309A409B509B7
:100D8000883E9340A105B10598F321E0C21AD1082D
:100D9000E108F10888EE280E83E0381E411C511C42
:100DA000C114D104E104F10419F72FB7F89480912C
:100DB0003B0290913C02A0913D02B0913E022FBFB8
:100DC0004091360250913702609138027091390299
:100DD000841B950BA60BB70B8093320290933302C2
:100DE000A0933402B0933502E0900001F09001012D
:100DF00080912E0290912F02A0913002B091310289
:100E00000196A11DB11D80932E0290932F02A093F5
:100E10003002B09331028BE591E00E94340389E601
:100E200091E00E94C002B7010F2C000C880B990BB7
:100E300097FF03C00E94130303C04AE00E94D2023E
:100E40008FE291E00E94C002F7013197E730F1058F
:100E500048F5EC5CFF4F0C94B807C3E0D0E02DC020
:100E60008091060190E095958795892B09F58091F1
:100E7000070190910801A0910901B0910A01985FC2
:100E8000AF4FBF4F40913202509133026091340214
:100E90007091350284179507A607B70760F0C6E082
:100EA000D0E00BC0C1E0D0E008C0C2E0D0E005C097
:100EB000C4E0D0E002C0C7E0D0E089E691E00E9443
:100EC000C002CE01A0E0B0E04AE0BC01CD010E942A
:100ED000D2028FE291E00E94C002C130D10589F4B4
:100EE0008092070190920801A0920901B0920A0134
:100EF0001093030184E08093040110930501109383
:100F000006018CEC80930201EC16FD0641F0109274
:100F10003602109237021092380210923902D093A2
:100F20000101C09300010E94F8017ECEA1E21A2EB9
:100F3000AA1BBB1BFD010DC0AA1FBB1FEE1FFF1F7D
:100F4000A217B307E407F50720F0A21BB30BE40BCD
:100F5000F50B661F771F881F991F1A9469F7609514
:100F60007095809590959B01AC01BD01CF010895CE
:100F7000EE0FFF1F0590F491E02D099481E090E0C1
:0A0F8000F8940C94C307F894FFCF17
:100F8A000100000000000110270000000000008995
:100F9A0001F6002001D60151012F01430100000092
:100FAA00008D026002BD0234025802440235020D6D
:100FBA000A007472616E736D697474696E67206C6D
:100FCA0069676874206672616D652E2E2E0054580A
:100FDA0020636F6D706C6574652E002D202D202D99
:100FEA0020736D5F7469636B002D202D202D202DD9
:0A0FFA002073746174653A20000052
:00000001FF
